{
  "contractName": "AdminStorage",
  "abi": [
    {
      "inputs": [
        {
          "internalType": "uint256",
          "name": "",
          "type": "uint256"
        }
      ],
      "name": "admins",
      "outputs": [
        {
          "internalType": "uint128",
          "name": "id",
          "type": "uint128"
        },
        {
          "internalType": "string",
          "name": "username",
          "type": "string"
        },
        {
          "internalType": "string",
          "name": "password",
          "type": "string"
        }
      ],
      "stateMutability": "view",
      "type": "function",
      "constant": true
    },
    {
      "inputs": [
        {
          "internalType": "string",
          "name": "username",
          "type": "string"
        },
        {
          "internalType": "string",
          "name": "password",
          "type": "string"
        }
      ],
      "name": "getAdmin",
      "outputs": [
        {
          "internalType": "uint128",
          "name": "",
          "type": "uint128"
        }
      ],
      "stateMutability": "view",
      "type": "function",
      "constant": true
    },
    {
      "inputs": [
        {
          "internalType": "string",
          "name": "username",
          "type": "string"
        }
      ],
      "name": "getAdminByUsername",
      "outputs": [
        {
          "internalType": "uint128",
          "name": "",
          "type": "uint128"
        }
      ],
      "stateMutability": "view",
      "type": "function",
      "constant": true
    },
    {
      "inputs": [
        {
          "internalType": "uint128",
          "name": "_id",
          "type": "uint128"
        },
        {
          "internalType": "string",
          "name": "_username",
          "type": "string"
        },
        {
          "internalType": "string",
          "name": "_password",
          "type": "string"
        }
      ],
      "name": "createAdmin",
      "outputs": [],
      "stateMutability": "nonpayable",
      "type": "function"
    }
  ],
  "bytecode": "0x608060405234801561001057600080fd5b5061112c806100206000396000f3fe608060405234801561001057600080fd5b506004361061004c5760003560e01c806314bfd6d0146100515780631e2428ee14610083578063336f8906146100b3578063b63903a7146100cf575b600080fd5b61006b60048036038101906100669190610792565b6100ff565b60405161007a9392919061087a565b60405180910390f35b61009d600480360381019061009891906109f4565b610265565b6040516100aa9190610a3d565b60405180910390f35b6100cd60048036038101906100c89190610a84565b61038f565b005b6100e960048036038101906100e49190610b0f565b6105a1565b6040516100f69190610a3d565b60405180910390f35b6000818154811061010f57600080fd5b90600052602060002090600302016000915090508060000160009054906101000a90046fffffffffffffffffffffffffffffffff169080600101805461015490610bb6565b80601f016020809104026020016040519081016040528092919081815260200182805461018090610bb6565b80156101cd5780601f106101a2576101008083540402835291602001916101cd565b820191906000526020600020905b8154815290600101906020018083116101b057829003601f168201915b5050505050908060020180546101e290610bb6565b80601f016020809104026020016040519081016040528092919081815260200182805461020e90610bb6565b801561025b5780601f106102305761010080835404028352916020019161025b565b820191906000526020600020905b81548152906001019060200180831161023e57829003601f168201915b5050505050905083565b600080600090505b60008054905081101561034e578260405160200161028b9190610c23565b60405160208183030381529060405280519060200120600082815481106102b5576102b4610c3a565b5b90600052602060002090600302016001016040516020016102d69190610d01565b604051602081830303815290604052805190602001200361033b576000818154811061030557610304610c3a565b5b906000526020600020906003020160000160009054906101000a90046fffffffffffffffffffffffffffffffff1691505061038a565b808061034690610d47565b91505061026d565b506040517f08c379a000000000000000000000000000000000000000000000000000000000815260040161038190610ddb565b60405180910390fd5b919050565b60005b6000805490508110156104d657826040516020016103b09190610c23565b60405160208183030381529060405280519060200120600082815481106103da576103d9610c3a565b5b90600052602060002090600302016001016040516020016103fb9190610d01565b60405160208183030381529060405280519060200120141580156104845750836fffffffffffffffffffffffffffffffff166000828154811061044157610440610c3a565b5b906000526020600020906003020160000160009054906101000a90046fffffffffffffffffffffffffffffffff166fffffffffffffffffffffffffffffffff1614155b6104c3576040517f08c379a00000000000000000000000000000000000000000000000000000000081526004016104ba90610e6d565b60405180910390fd5b80806104ce90610d47565b915050610392565b5060006040518060600160405280856fffffffffffffffffffffffffffffffff16815260200184815260200183815250908060018154018082558091505060019003906000526020600020906003020160009091909190915060008201518160000160006101000a8154816fffffffffffffffffffffffffffffffff02191690836fffffffffffffffffffffffffffffffff16021790555060208201518160010190816105839190611024565b5060408201518160020190816105999190611024565b505050505050565b600080600090505b60008054905081101561070657836040516020016105c79190610c23565b60405160208183030381529060405280519060200120600082815481106105f1576105f0610c3a565b5b90600052602060002090600302016001016040516020016106129190610d01565b604051602081830303815290604052805190602001201480156106a45750826040516020016106419190610c23565b604051602081830303815290604052805190602001206000828154811061066b5761066a610c3a565b5b906000526020600020906003020160020160405160200161068c9190610d01565b60405160208183030381529060405280519060200120145b156106f357600081815481106106bd576106bc610c3a565b5b906000526020600020906003020160000160009054906101000a90046fffffffffffffffffffffffffffffffff16915050610742565b80806106fe90610d47565b9150506105a9565b506040517f08c379a000000000000000000000000000000000000000000000000000000000815260040161073990610ddb565b60405180910390fd5b92915050565b6000604051905090565b600080fd5b600080fd5b6000819050919050565b61076f8161075c565b811461077a57600080fd5b50565b60008135905061078c81610766565b92915050565b6000602082840312156107a8576107a7610752565b5b60006107b68482850161077d565b91505092915050565b60006fffffffffffffffffffffffffffffffff82169050919050565b6107e4816107bf565b82525050565b600081519050919050565b600082825260208201905092915050565b60005b83811015610824578082015181840152602081019050610809565b60008484015250505050565b6000601f19601f8301169050919050565b600061084c826107ea565b61085681856107f5565b9350610866818560208601610806565b61086f81610830565b840191505092915050565b600060608201905061088f60008301866107db565b81810360208301526108a18185610841565b905081810360408301526108b58184610841565b9050949350505050565b600080fd5b600080fd5b7f4e487b7100000000000000000000000000000000000000000000000000000000600052604160045260246000fd5b61090182610830565b810181811067ffffffffffffffff821117156109205761091f6108c9565b5b80604052505050565b6000610933610748565b905061093f82826108f8565b919050565b600067ffffffffffffffff82111561095f5761095e6108c9565b5b61096882610830565b9050602081019050919050565b82818337600083830152505050565b600061099761099284610944565b610929565b9050828152602081018484840111156109b3576109b26108c4565b5b6109be848285610975565b509392505050565b600082601f8301126109db576109da6108bf565b5b81356109eb848260208601610984565b91505092915050565b600060208284031215610a0a57610a09610752565b5b600082013567ffffffffffffffff811115610a2857610a27610757565b5b610a34848285016109c6565b91505092915050565b6000602082019050610a5260008301846107db565b92915050565b610a61816107bf565b8114610a6c57600080fd5b50565b600081359050610a7e81610a58565b92915050565b600080600060608486031215610a9d57610a9c610752565b5b6000610aab86828701610a6f565b935050602084013567ffffffffffffffff811115610acc57610acb610757565b5b610ad8868287016109c6565b925050604084013567ffffffffffffffff811115610af957610af8610757565b5b610b05868287016109c6565b9150509250925092565b60008060408385031215610b2657610b25610752565b5b600083013567ffffffffffffffff811115610b4457610b43610757565b5b610b50858286016109c6565b925050602083013567ffffffffffffffff811115610b7157610b70610757565b5b610b7d858286016109c6565b9150509250929050565b7f4e487b7100000000000000000000000000000000000000000000000000000000600052602260045260246000fd5b60006002820490506001821680610bce57607f821691505b602082108103610be157610be0610b87565b5b50919050565b600081905092915050565b6000610bfd826107ea565b610c078185610be7565b9350610c17818560208601610806565b80840191505092915050565b6000610c2f8284610bf2565b915081905092915050565b7f4e487b7100000000000000000000000000000000000000000000000000000000600052603260045260246000fd5b60008190508160005260206000209050919050565b60008154610c8b81610bb6565b610c958186610be7565b94506001821660008114610cb05760018114610cc557610cf8565b60ff1983168652811515820286019350610cf8565b610cce85610c69565b60005b83811015610cf057815481890152600182019150602081019050610cd1565b838801955050505b50505092915050565b6000610d0d8284610c7e565b915081905092915050565b7f4e487b7100000000000000000000000000000000000000000000000000000000600052601160045260246000fd5b6000610d528261075c565b91507fffffffffffffffffffffffffffffffffffffffffffffffffffffffffffffffff8203610d8457610d83610d18565b5b600182019050919050565b7f41646d696e206e6f7420666f756e640000000000000000000000000000000000600082015250565b6000610dc5600f836107f5565b9150610dd082610d8f565b602082019050919050565b60006020820190508181036000830152610df481610db8565b9050919050565b7f41646d696e206578697374732c2063686f6f736520646966666572656e74207560008201527f7365726e616d65206f7220494400000000000000000000000000000000000000602082015250565b6000610e57602d836107f5565b9150610e6282610dfb565b604082019050919050565b60006020820190508181036000830152610e8681610e4a565b9050919050565b60006020601f8301049050919050565b600082821b905092915050565b600060088302610eda7fffffffffffffffffffffffffffffffffffffffffffffffffffffffffffffffff82610e9d565b610ee48683610e9d565b95508019841693508086168417925050509392505050565b6000819050919050565b6000610f21610f1c610f178461075c565b610efc565b61075c565b9050919050565b6000819050919050565b610f3b83610f06565b610f4f610f4782610f28565b848454610eaa565b825550505050565b600090565b610f64610f57565b610f6f818484610f32565b505050565b5b81811015610f9357610f88600082610f5c565b600181019050610f75565b5050565b601f821115610fd857610fa981610c69565b610fb284610e8d565b81016020851015610fc1578190505b610fd5610fcd85610e8d565b830182610f74565b50505b505050565b600082821c905092915050565b6000610ffb60001984600802610fdd565b1980831691505092915050565b60006110148383610fea565b9150826002028217905092915050565b61102d826107ea565b67ffffffffffffffff811115611046576110456108c9565b5b6110508254610bb6565b61105b828285610f97565b600060209050601f83116001811461108e576000841561107c578287015190505b6110868582611008565b8655506110ee565b601f19841661109c86610c69565b60005b828110156110c45784890151825560018201915060208501945060208101905061109f565b868310156110e157848901516110dd601f891682610fea565b8355505b6001600288020188555050505b50505050505056fea26469706673582212208490dd6f176e93787deb732e763dd9c9532ecf2020abccdab296bb1397f1e70164736f6c63430008100033",
  "immutableReferences": {},
  "source": "// SPDX-License-Identifier: MIT\npragma solidity ^0.8.0;\n\ncontract AdminStorage {\n    struct Admin {\n        uint128 id;\n        string username;\n        string password;\n    }\n    Admin[] public admins;\n\n    function getAdmin(string memory username, string memory password) public view returns (uint128) {\n        for (uint256 i = 0; i < admins.length; i++) {\n            if (keccak256(abi.encodePacked(admins[i].username)) == keccak256(abi.encodePacked(username)) &&\n                keccak256(abi.encodePacked(admins[i].password)) == keccak256(abi.encodePacked(password))) {\n                return admins[i].id;\n            }\n        }\n        revert(\"Admin not found\");\n    }\n\n    function getAdminByUsername(string memory username) public view returns (uint128) {\n        for (uint256 i = 0; i < admins.length; i++) {\n            if (keccak256(abi.encodePacked(admins[i].username)) == keccak256(abi.encodePacked(username))) {\n                return admins[i].id;\n            }\n        }\n        revert(\"Admin not found\");\n    }\n\n    function createAdmin(uint128 _id, string memory _username, string memory _password) public {\n        for (uint256 i = 0; i < admins.length; i++) {\n            require(\n                keccak256(abi.encodePacked(admins[i].username)) != keccak256(abi.encodePacked(_username)) &&\n                admins[i].id != _id,\n                \"Admin exists, choose different username or ID\"\n            );\n        }\n        admins.push(Admin(_id, _username, _password));\n    }\n}\n",
  "sourcePath": "/home/fahim/Desktop/Patient-Management-Project-on-Ethereum/contracts/AdminStorage.sol",
  "compiler": {
    "name": "solc",
    "version": "0.8.16+commit.07a7930e.Emscripten.clang"
  },
  "schemaVersion": "3.4.16",
  "updatedAt": "2024-04-15T20:59:13.585Z",
  "networkType": "ethereum",
  "devdoc": {
    "kind": "dev",
    "methods": {},
    "version": 1
  },
  "userdoc": {
    "kind": "user",
    "methods": {},
    "version": 1
  }
}