{
  "contractName": "PatientStorage",
  "abi": [
    {
      "inputs": [
        {
          "internalType": "address",
          "name": "_adminContractAddress",
          "type": "address"
        }
      ],
      "stateMutability": "nonpayable",
      "type": "constructor"
    },
    {
      "inputs": [
        {
          "internalType": "uint256",
          "name": "",
          "type": "uint256"
        }
      ],
      "name": "patients",
      "outputs": [
        {
          "internalType": "uint256",
          "name": "id",
          "type": "uint256"
        },
        {
          "internalType": "uint256",
          "name": "serial",
          "type": "uint256"
        },
        {
          "internalType": "uint128",
          "name": "age",
          "type": "uint128"
        },
        {
          "internalType": "enum PatientStorage.Gender",
          "name": "gender",
          "type": "uint8"
        },
        {
          "internalType": "enum PatientStorage.VaccineStatus",
          "name": "vaccineStatus",
          "type": "uint8"
        },
        {
          "internalType": "string",
          "name": "district",
          "type": "string"
        },
        {
          "internalType": "string",
          "name": "symptomsDetails",
          "type": "string"
        },
        {
          "internalType": "bool",
          "name": "isDead",
          "type": "bool"
        },
        {
          "internalType": "uint128",
          "name": "createdBy",
          "type": "uint128"
        },
        {
          "internalType": "uint128",
          "name": "updatedBy",
          "type": "uint128"
        }
      ],
      "stateMutability": "view",
      "type": "function",
      "constant": true
    },
    {
      "inputs": [
        {
          "internalType": "uint128",
          "name": "_id",
          "type": "uint128"
        },
        {
          "internalType": "uint256",
          "name": "_serial",
          "type": "uint256"
        },
        {
          "internalType": "uint128",
          "name": "_age",
          "type": "uint128"
        },
        {
          "internalType": "enum PatientStorage.Gender",
          "name": "_gender",
          "type": "uint8"
        },
        {
          "internalType": "string",
          "name": "_district",
          "type": "string"
        },
        {
          "internalType": "string",
          "name": "_symptomsDetails",
          "type": "string"
        }
      ],
      "name": "createPatientByPatient",
      "outputs": [],
      "stateMutability": "nonpayable",
      "type": "function"
    },
    {
      "inputs": [
        {
          "internalType": "uint128",
          "name": "_id",
          "type": "uint128"
        },
        {
          "internalType": "uint128",
          "name": "_serial",
          "type": "uint128"
        },
        {
          "internalType": "uint128",
          "name": "_age",
          "type": "uint128"
        },
        {
          "internalType": "enum PatientStorage.Gender",
          "name": "_gender",
          "type": "uint8"
        },
        {
          "internalType": "string",
          "name": "_district",
          "type": "string"
        },
        {
          "internalType": "string",
          "name": "_symptomsDetails",
          "type": "string"
        },
        {
          "internalType": "string",
          "name": "AdminUsername",
          "type": "string"
        }
      ],
      "name": "createPatientByAdmin",
      "outputs": [],
      "stateMutability": "nonpayable",
      "type": "function"
    },
    {
      "inputs": [
        {
          "internalType": "uint256",
          "name": "serial",
          "type": "uint256"
        }
      ],
      "name": "getPatient",
      "outputs": [
        {
          "internalType": "uint256",
          "name": "",
          "type": "uint256"
        },
        {
          "internalType": "uint128",
          "name": "",
          "type": "uint128"
        },
        {
          "internalType": "enum PatientStorage.Gender",
          "name": "",
          "type": "uint8"
        },
        {
          "internalType": "enum PatientStorage.VaccineStatus",
          "name": "",
          "type": "uint8"
        },
        {
          "internalType": "string",
          "name": "",
          "type": "string"
        },
        {
          "internalType": "string",
          "name": "",
          "type": "string"
        },
        {
          "internalType": "bool",
          "name": "",
          "type": "bool"
        }
      ],
      "stateMutability": "view",
      "type": "function",
      "constant": true
    },
    {
      "inputs": [
        {
          "internalType": "uint256",
          "name": "serial",
          "type": "uint256"
        }
      ],
      "name": "deletePatient",
      "outputs": [
        {
          "internalType": "bool",
          "name": "",
          "type": "bool"
        }
      ],
      "stateMutability": "nonpayable",
      "type": "function"
    },
    {
      "inputs": [],
      "name": "getAllPatients",
      "outputs": [
        {
          "components": [
            {
              "internalType": "uint256",
              "name": "id",
              "type": "uint256"
            },
            {
              "internalType": "uint256",
              "name": "serial",
              "type": "uint256"
            },
            {
              "internalType": "uint128",
              "name": "age",
              "type": "uint128"
            },
            {
              "internalType": "enum PatientStorage.Gender",
              "name": "gender",
              "type": "uint8"
            },
            {
              "internalType": "enum PatientStorage.VaccineStatus",
              "name": "vaccineStatus",
              "type": "uint8"
            },
            {
              "internalType": "string",
              "name": "district",
              "type": "string"
            },
            {
              "internalType": "string",
              "name": "symptomsDetails",
              "type": "string"
            },
            {
              "internalType": "bool",
              "name": "isDead",
              "type": "bool"
            },
            {
              "internalType": "uint128",
              "name": "createdBy",
              "type": "uint128"
            },
            {
              "internalType": "uint128",
              "name": "updatedBy",
              "type": "uint128"
            }
          ],
          "internalType": "struct PatientStorage.Patient[]",
          "name": "",
          "type": "tuple[]"
        }
      ],
      "stateMutability": "view",
      "type": "function",
      "constant": true
    },
    {
      "inputs": [
        {
          "internalType": "uint256",
          "name": "serial",
          "type": "uint256"
        },
        {
          "internalType": "uint128",
          "name": "_age",
          "type": "uint128"
        },
        {
          "internalType": "enum PatientStorage.Gender",
          "name": "_gender",
          "type": "uint8"
        },
        {
          "internalType": "string",
          "name": "_district",
          "type": "string"
        },
        {
          "internalType": "string",
          "name": "_symptomsDetails",
          "type": "string"
        }
      ],
      "name": "updatePatient",
      "outputs": [
        {
          "internalType": "bool",
          "name": "",
          "type": "bool"
        }
      ],
      "stateMutability": "nonpayable",
      "type": "function"
    },
    {
      "inputs": [
        {
          "internalType": "uint256",
          "name": "serial",
          "type": "uint256"
        },
        {
          "internalType": "uint128",
          "name": "_age",
          "type": "uint128"
        },
        {
          "internalType": "enum PatientStorage.Gender",
          "name": "_gender",
          "type": "uint8"
        },
        {
          "internalType": "enum PatientStorage.VaccineStatus",
          "name": "_vaccineStatus",
          "type": "uint8"
        },
        {
          "internalType": "string",
          "name": "_district",
          "type": "string"
        },
        {
          "internalType": "string",
          "name": "_symptomsDetails",
          "type": "string"
        },
        {
          "internalType": "bool",
          "name": "_isDead",
          "type": "bool"
        },
        {
          "internalType": "string",
          "name": "AdminUsername",
          "type": "string"
        }
      ],
      "name": "updatePatientByAdmin",
      "outputs": [],
      "stateMutability": "nonpayable",
      "type": "function"
    }
  ],
  "bytecode": "0x60806040523480156200001157600080fd5b5060405162002b5f38038062002b5f8339818101604052810190620000379190620000e8565b806000806101000a81548173ffffffffffffffffffffffffffffffffffffffff021916908373ffffffffffffffffffffffffffffffffffffffff160217905550506200011a565b600080fd5b600073ffffffffffffffffffffffffffffffffffffffff82169050919050565b6000620000b08262000083565b9050919050565b620000c281620000a3565b8114620000ce57600080fd5b50565b600081519050620000e281620000b7565b92915050565b6000602082840312156200010157620001006200007e565b5b60006200011184828501620000d1565b91505092915050565b612a35806200012a6000396000f3fe608060405234801561001057600080fd5b50600436106100885760003560e01c806393119a831161005b57806393119a831461012d578063c0e59cc914610166578063dde524ae14610182578063f53f34c41461019e57610088565b806318a231a91461008d57806367e57482146100ab5780637d3a6796146100db57806381d96a2e14610111575b600080fd5b6100956101ce565b6040516100a29190611c95565b60405180910390f35b6100c560048036038101906100c09190611cf7565b6104d5565b6040516100d29190611d33565b60405180910390f35b6100f560048036038101906100f09190611cf7565b6108d8565b6040516101089796959493929190611dd4565b60405180910390f35b61012b60048036038101906101269190612028565b610c8d565b005b61014760048036038101906101429190611cf7565b610fbd565b60405161015d9a99989796959493929190612132565b60405180910390f35b610180600480360381019061017b91906121dc565b6111ac565b005b61019c600480360381019061019791906122a1565b611418565b005b6101b860048036038101906101b39190612397565b611735565b6040516101c59190611d33565b60405180910390f35b60606001805480602002602001604051908101604052809291908181526020016000905b828210156104cc57838290600052602060002090600702016040518061014001604052908160008201548152602001600182015481526020016002820160009054906101000a90046fffffffffffffffffffffffffffffffff166fffffffffffffffffffffffffffffffff166fffffffffffffffffffffffffffffffff1681526020016002820160109054906101000a900460ff166001811115610299576102986119b4565b5b60018111156102ab576102aa6119b4565b5b81526020016002820160119054906101000a900460ff1660028111156102d4576102d36119b4565b5b60028111156102e6576102e56119b4565b5b81526020016003820180546102fa90612479565b80601f016020809104026020016040519081016040528092919081815260200182805461032690612479565b80156103735780601f1061034857610100808354040283529160200191610373565b820191906000526020600020905b81548152906001019060200180831161035657829003601f168201915b5050505050815260200160048201805461038c90612479565b80601f01602080910402602001604051908101604052809291908181526020018280546103b890612479565b80156104055780601f106103da57610100808354040283529160200191610405565b820191906000526020600020905b8154815290600101906020018083116103e857829003601f168201915b505050505081526020016005820160009054906101000a900460ff161515151581526020016005820160019054906101000a90046fffffffffffffffffffffffffffffffff166fffffffffffffffffffffffffffffffff166fffffffffffffffffffffffffffffffff1681526020016006820160009054906101000a90046fffffffffffffffffffffffffffffffff166fffffffffffffffffffffffffffffffff166fffffffffffffffffffffffffffffffff1681525050815260200190600101906101f2565b50505050905090565b600080600090505b6001805490508110156108975782600182815481106104ff576104fe6124aa565b5b9060005260206000209060070201600101540361088457600180805490506105279190612508565b811461077a57600180808054905061053f9190612508565b815481106105505761054f6124aa565b5b906000526020600020906007020160018281548110610572576105716124aa565b5b906000526020600020906007020160008201548160000155600182015481600101556002820160009054906101000a90046fffffffffffffffffffffffffffffffff168160020160006101000a8154816fffffffffffffffffffffffffffffffff02191690836fffffffffffffffffffffffffffffffff1602179055506002820160109054906101000a900460ff168160020160106101000a81548160ff02191690836001811115610627576106266119b4565b5b02179055506002820160119054906101000a900460ff168160020160116101000a81548160ff02191690836002811115610664576106636119b4565b5b02179055506003820181600301908161067d91906126fe565b506004820181600401908161069291906126fe565b506005820160009054906101000a900460ff168160050160006101000a81548160ff0219169083151502179055506005820160019054906101000a90046fffffffffffffffffffffffffffffffff168160050160016101000a8154816fffffffffffffffffffffffffffffffff02191690836fffffffffffffffffffffffffffffffff1602179055506006820160009054906101000a90046fffffffffffffffffffffffffffffffff168160060160006101000a8154816fffffffffffffffffffffffffffffffff02191690836fffffffffffffffffffffffffffffffff1602179055509050505b600180548061078c5761078b6127e6565b5b600190038181906000526020600020906007020160008082016000905560018201600090556002820160006101000a8154906fffffffffffffffffffffffffffffffff02191690556002820160106101000a81549060ff02191690556002820160116101000a81549060ff021916905560038201600061080c91906118e7565b60048201600061081c91906118e7565b6005820160006101000a81549060ff02191690556005820160016101000a8154906fffffffffffffffffffffffffffffffff02191690556006820160006101000a8154906fffffffffffffffffffffffffffffffff02191690555050905560019150506108d3565b808061088f90612815565b9150506104dd565b506040517f08c379a00000000000000000000000000000000000000000000000000000000081526004016108ca906128a9565b60405180910390fd5b919050565b600080600080606080600080600090505b600180549050811015610c4657886001828154811061090b5761090a6124aa565b5b90600052602060002090600702016001015403610c3357600060018281548110610938576109376124aa565b5b90600052602060002090600702016040518061014001604052908160008201548152602001600182015481526020016002820160009054906101000a90046fffffffffffffffffffffffffffffffff166fffffffffffffffffffffffffffffffff166fffffffffffffffffffffffffffffffff1681526020016002820160109054906101000a900460ff1660018111156109d5576109d46119b4565b5b60018111156109e7576109e66119b4565b5b81526020016002820160119054906101000a900460ff166002811115610a1057610a0f6119b4565b5b6002811115610a2257610a216119b4565b5b8152602001600382018054610a3690612479565b80601f0160208091040260200160405190810160405280929190818152602001828054610a6290612479565b8015610aaf5780601f10610a8457610100808354040283529160200191610aaf565b820191906000526020600020905b815481529060010190602001808311610a9257829003601f168201915b50505050508152602001600482018054610ac890612479565b80601f0160208091040260200160405190810160405280929190818152602001828054610af490612479565b8015610b415780601f10610b1657610100808354040283529160200191610b41565b820191906000526020600020905b815481529060010190602001808311610b2457829003601f168201915b505050505081526020016005820160009054906101000a900460ff161515151581526020016005820160019054906101000a90046fffffffffffffffffffffffffffffffff166fffffffffffffffffffffffffffffffff166fffffffffffffffffffffffffffffffff1681526020016006820160009054906101000a90046fffffffffffffffffffffffffffffffff166fffffffffffffffffffffffffffffffff166fffffffffffffffffffffffffffffffff1681525050905080600001518160400151826060015183608001518460a001518560c001518660e0015198509850985098509850985098505050610c82565b8080610c3e90612815565b9150506108e9565b506040517f08c379a0000000000000000000000000000000000000000000000000000000008152600401610c79906128a9565b60405180910390fd5b919395979092949650565b60005b600180549050811015610f77578860018281548110610cb257610cb16124aa565b5b90600052602060002090600702016001015403610f645760008060009054906101000a900473ffffffffffffffffffffffffffffffffffffffff1673ffffffffffffffffffffffffffffffffffffffff16631e2428ee846040518263ffffffff1660e01b8152600401610d2591906128c9565b602060405180830381865afa158015610d42573d6000803e3d6000fd5b505050506040513d601f19601f82011682018060405250810190610d669190612900565b90508860018381548110610d7d57610d7c6124aa565b5b906000526020600020906007020160020160006101000a8154816fffffffffffffffffffffffffffffffff02191690836fffffffffffffffffffffffffffffffff1602179055508760018381548110610dd957610dd86124aa565b5b906000526020600020906007020160020160106101000a81548160ff02191690836001811115610e0c57610e0b6119b4565b5b02179055508660018381548110610e2657610e256124aa565b5b906000526020600020906007020160020160116101000a81548160ff02191690836002811115610e5957610e586119b4565b5b02179055508560018381548110610e7357610e726124aa565b5b90600052602060002090600702016003019081610e90919061292d565b508460018381548110610ea657610ea56124aa565b5b90600052602060002090600702016004019081610ec3919061292d565b508360018381548110610ed957610ed86124aa565b5b906000526020600020906007020160050160006101000a81548160ff0219169083151502179055508060018381548110610f1657610f156124aa565b5b906000526020600020906007020160060160006101000a8154816fffffffffffffffffffffffffffffffff02191690836fffffffffffffffffffffffffffffffff1602179055505050610fb3565b8080610f6f90612815565b915050610c90565b506040517f08c379a0000000000000000000000000000000000000000000000000000000008152600401610faa906128a9565b60405180910390fd5b5050505050505050565b60018181548110610fcd57600080fd5b90600052602060002090600702016000915090508060000154908060010154908060020160009054906101000a90046fffffffffffffffffffffffffffffffff16908060020160109054906101000a900460ff16908060020160119054906101000a900460ff169080600301805461104490612479565b80601f016020809104026020016040519081016040528092919081815260200182805461107090612479565b80156110bd5780601f10611092576101008083540402835291602001916110bd565b820191906000526020600020905b8154815290600101906020018083116110a057829003601f168201915b5050505050908060040180546110d290612479565b80601f01602080910402602001604051908101604052809291908181526020018280546110fe90612479565b801561114b5780601f106111205761010080835404028352916020019161114b565b820191906000526020600020905b81548152906001019060200180831161112e57829003601f168201915b5050505050908060050160009054906101000a900460ff16908060050160019054906101000a90046fffffffffffffffffffffffffffffffff16908060060160009054906101000a90046fffffffffffffffffffffffffffffffff1690508a565b6001604051806101400160405280886fffffffffffffffffffffffffffffffff168152602001878152602001866fffffffffffffffffffffffffffffffff168152602001856001811115611203576112026119b4565b5b81526020016000600281111561121c5761121b6119b4565b5b815260200184815260200183815260200160001515815260200160006fffffffffffffffffffffffffffffffff16815260200160006fffffffffffffffffffffffffffffffff168152509080600181540180825580915050600190039060005260206000209060070201600090919091909150600082015181600001556020820151816001015560408201518160020160006101000a8154816fffffffffffffffffffffffffffffffff02191690836fffffffffffffffffffffffffffffffff16021790555060608201518160020160106101000a81548160ff0219169083600181111561130d5761130c6119b4565b5b021790555060808201518160020160116101000a81548160ff0219169083600281111561133d5761133c6119b4565b5b021790555060a0820151816003019081611357919061292d565b5060c082015181600401908161136d919061292d565b5060e08201518160050160006101000a81548160ff0219169083151502179055506101008201518160050160016101000a8154816fffffffffffffffffffffffffffffffff02191690836fffffffffffffffffffffffffffffffff1602179055506101208201518160060160006101000a8154816fffffffffffffffffffffffffffffffff02191690836fffffffffffffffffffffffffffffffff1602179055505050505050505050565b60008060009054906101000a900473ffffffffffffffffffffffffffffffffffffffff1673ffffffffffffffffffffffffffffffffffffffff16631e2428ee836040518263ffffffff1660e01b815260040161147491906128c9565b602060405180830381865afa158015611491573d6000803e3d6000fd5b505050506040513d601f19601f820116820180604052508101906114b59190612900565b905060016040518061014001604052808a6fffffffffffffffffffffffffffffffff168152602001896fffffffffffffffffffffffffffffffff168152602001886fffffffffffffffffffffffffffffffff1681526020018760018111156115205761151f6119b4565b5b815260200160006002811115611539576115386119b4565b5b8152602001868152602001858152602001600015158152602001836fffffffffffffffffffffffffffffffff168152602001836fffffffffffffffffffffffffffffffff168152509080600181540180825580915050600190039060005260206000209060070201600090919091909150600082015181600001556020820151816001015560408201518160020160006101000a8154816fffffffffffffffffffffffffffffffff02191690836fffffffffffffffffffffffffffffffff16021790555060608201518160020160106101000a81548160ff02191690836001811115611628576116276119b4565b5b021790555060808201518160020160116101000a81548160ff02191690836002811115611658576116576119b4565b5b021790555060a0820151816003019081611672919061292d565b5060c0820151816004019081611688919061292d565b5060e08201518160050160006101000a81548160ff0219169083151502179055506101008201518160050160016101000a8154816fffffffffffffffffffffffffffffffff02191690836fffffffffffffffffffffffffffffffff1602179055506101208201518160060160006101000a8154816fffffffffffffffffffffffffffffffff02191690836fffffffffffffffffffffffffffffffff16021790555050505050505050505050565b600080600090505b6001805490508110156118a257866001828154811061175f5761175e6124aa565b5b9060005260206000209060070201600101540361188f57856001828154811061178b5761178a6124aa565b5b906000526020600020906007020160020160006101000a8154816fffffffffffffffffffffffffffffffff02191690836fffffffffffffffffffffffffffffffff16021790555084600182815481106117e7576117e66124aa565b5b906000526020600020906007020160020160106101000a81548160ff0219169083600181111561181a576118196119b4565b5b02179055508360018281548110611834576118336124aa565b5b90600052602060002090600702016003019081611851919061292d565b508260018281548110611867576118666124aa565b5b90600052602060002090600702016004019081611884919061292d565b5060019150506118de565b808061189a90612815565b91505061173d565b506040517f08c379a00000000000000000000000000000000000000000000000000000000081526004016118d5906128a9565b60405180910390fd5b95945050505050565b5080546118f390612479565b6000825580601f106119055750611924565b601f0160209004906000526020600020908101906119239190611927565b5b50565b5b80821115611940576000816000905550600101611928565b5090565b600081519050919050565b600082825260208201905092915050565b6000819050602082019050919050565b6000819050919050565b61198381611970565b82525050565b60006fffffffffffffffffffffffffffffffff82169050919050565b6119ae81611989565b82525050565b7f4e487b7100000000000000000000000000000000000000000000000000000000600052602160045260246000fd5b600281106119f4576119f36119b4565b5b50565b6000819050611a05826119e3565b919050565b6000611a15826119f7565b9050919050565b611a2581611a0a565b82525050565b60038110611a3c57611a3b6119b4565b5b50565b6000819050611a4d82611a2b565b919050565b6000611a5d82611a3f565b9050919050565b611a6d81611a52565b82525050565b600081519050919050565b600082825260208201905092915050565b60005b83811015611aad578082015181840152602081019050611a92565b60008484015250505050565b6000601f19601f8301169050919050565b6000611ad582611a73565b611adf8185611a7e565b9350611aef818560208601611a8f565b611af881611ab9565b840191505092915050565b60008115159050919050565b611b1881611b03565b82525050565b600061014083016000830151611b37600086018261197a565b506020830151611b4a602086018261197a565b506040830151611b5d60408601826119a5565b506060830151611b706060860182611a1c565b506080830151611b836080860182611a64565b5060a083015184820360a0860152611b9b8282611aca565b91505060c083015184820360c0860152611bb58282611aca565b91505060e0830151611bca60e0860182611b0f565b50610100830151611bdf6101008601826119a5565b50610120830151611bf46101208601826119a5565b508091505092915050565b6000611c0b8383611b1e565b905092915050565b6000602082019050919050565b6000611c2b82611944565b611c35818561194f565b935083602082028501611c4785611960565b8060005b85811015611c835784840389528151611c648582611bff565b9450611c6f83611c13565b925060208a01995050600181019050611c4b565b50829750879550505050505092915050565b60006020820190508181036000830152611caf8184611c20565b905092915050565b6000604051905090565b600080fd5b600080fd5b611cd481611970565b8114611cdf57600080fd5b50565b600081359050611cf181611ccb565b92915050565b600060208284031215611d0d57611d0c611cc1565b5b6000611d1b84828501611ce2565b91505092915050565b611d2d81611b03565b82525050565b6000602082019050611d486000830184611d24565b92915050565b611d5781611970565b82525050565b611d6681611989565b82525050565b611d7581611a0a565b82525050565b611d8481611a52565b82525050565b600082825260208201905092915050565b6000611da682611a73565b611db08185611d8a565b9350611dc0818560208601611a8f565b611dc981611ab9565b840191505092915050565b600060e082019050611de9600083018a611d4e565b611df66020830189611d5d565b611e036040830188611d6c565b611e106060830187611d7b565b8181036080830152611e228186611d9b565b905081810360a0830152611e368185611d9b565b9050611e4560c0830184611d24565b98975050505050505050565b611e5a81611989565b8114611e6557600080fd5b50565b600081359050611e7781611e51565b92915050565b60028110611e8a57600080fd5b50565b600081359050611e9c81611e7d565b92915050565b60038110611eaf57600080fd5b50565b600081359050611ec181611ea2565b92915050565b600080fd5b600080fd5b7f4e487b7100000000000000000000000000000000000000000000000000000000600052604160045260246000fd5b611f0982611ab9565b810181811067ffffffffffffffff82111715611f2857611f27611ed1565b5b80604052505050565b6000611f3b611cb7565b9050611f478282611f00565b919050565b600067ffffffffffffffff821115611f6757611f66611ed1565b5b611f7082611ab9565b9050602081019050919050565b82818337600083830152505050565b6000611f9f611f9a84611f4c565b611f31565b905082815260208101848484011115611fbb57611fba611ecc565b5b611fc6848285611f7d565b509392505050565b600082601f830112611fe357611fe2611ec7565b5b8135611ff3848260208601611f8c565b91505092915050565b61200581611b03565b811461201057600080fd5b50565b60008135905061202281611ffc565b92915050565b600080600080600080600080610100898b03121561204957612048611cc1565b5b60006120578b828c01611ce2565b98505060206120688b828c01611e68565b97505060406120798b828c01611e8d565b965050606061208a8b828c01611eb2565b955050608089013567ffffffffffffffff8111156120ab576120aa611cc6565b5b6120b78b828c01611fce565b94505060a089013567ffffffffffffffff8111156120d8576120d7611cc6565b5b6120e48b828c01611fce565b93505060c06120f58b828c01612013565b92505060e089013567ffffffffffffffff81111561211657612115611cc6565b5b6121228b828c01611fce565b9150509295985092959890939650565b600061014082019050612148600083018d611d4e565b612155602083018c611d4e565b612162604083018b611d5d565b61216f606083018a611d6c565b61217c6080830189611d7b565b81810360a083015261218e8188611d9b565b905081810360c08301526121a28187611d9b565b90506121b160e0830186611d24565b6121bf610100830185611d5d565b6121cd610120830184611d5d565b9b9a5050505050505050505050565b60008060008060008060c087890312156121f9576121f8611cc1565b5b600061220789828a01611e68565b965050602061221889828a01611ce2565b955050604061222989828a01611e68565b945050606061223a89828a01611e8d565b935050608087013567ffffffffffffffff81111561225b5761225a611cc6565b5b61226789828a01611fce565b92505060a087013567ffffffffffffffff81111561228857612287611cc6565b5b61229489828a01611fce565b9150509295509295509295565b600080600080600080600060e0888a0312156122c0576122bf611cc1565b5b60006122ce8a828b01611e68565b97505060206122df8a828b01611e68565b96505060406122f08a828b01611e68565b95505060606123018a828b01611e8d565b945050608088013567ffffffffffffffff81111561232257612321611cc6565b5b61232e8a828b01611fce565b93505060a088013567ffffffffffffffff81111561234f5761234e611cc6565b5b61235b8a828b01611fce565b92505060c088013567ffffffffffffffff81111561237c5761237b611cc6565b5b6123888a828b01611fce565b91505092959891949750929550565b600080600080600060a086880312156123b3576123b2611cc1565b5b60006123c188828901611ce2565b95505060206123d288828901611e68565b94505060406123e388828901611e8d565b935050606086013567ffffffffffffffff81111561240457612403611cc6565b5b61241088828901611fce565b925050608086013567ffffffffffffffff81111561243157612430611cc6565b5b61243d88828901611fce565b9150509295509295909350565b7f4e487b7100000000000000000000000000000000000000000000000000000000600052602260045260246000fd5b6000600282049050600182168061249157607f821691505b6020821081036124a4576124a361244a565b5b50919050565b7f4e487b7100000000000000000000000000000000000000000000000000000000600052603260045260246000fd5b7f4e487b7100000000000000000000000000000000000000000000000000000000600052601160045260246000fd5b600061251382611970565b915061251e83611970565b9250828203905081811115612536576125356124d9565b5b92915050565b60008154905061254b81612479565b9050919050565b60008190508160005260206000209050919050565b60006020601f8301049050919050565b600082821b905092915050565b6000600883026125b47fffffffffffffffffffffffffffffffffffffffffffffffffffffffffffffffff82612577565b6125be8683612577565b95508019841693508086168417925050509392505050565b6000819050919050565b60006125fb6125f66125f184611970565b6125d6565b611970565b9050919050565b6000819050919050565b612615836125e0565b61262961262182612602565b848454612584565b825550505050565b600090565b61263e612631565b61264981848461260c565b505050565b5b8181101561266d57612662600082612636565b60018101905061264f565b5050565b601f8211156126b25761268381612552565b61268c84612567565b8101602085101561269b578190505b6126af6126a785612567565b83018261264e565b50505b505050565b600082821c905092915050565b60006126d5600019846008026126b7565b1980831691505092915050565b60006126ee83836126c4565b9150826002028217905092915050565b81810361270c5750506127e4565b6127158261253c565b67ffffffffffffffff81111561272e5761272d611ed1565b5b6127388254612479565b612743828285612671565b6000601f8311600181146127725760008415612760578287015490505b61276a85826126e2565b8655506127dd565b601f19841661278087612552565b965061278b86612552565b60005b828110156127b35784890154825560018201915060018501945060208101905061278e565b868310156127d057848901546127cc601f8916826126c4565b8355505b6001600288020188555050505b5050505050505b565b7f4e487b7100000000000000000000000000000000000000000000000000000000600052603160045260246000fd5b600061282082611970565b91507fffffffffffffffffffffffffffffffffffffffffffffffffffffffffffffffff8203612852576128516124d9565b5b600182019050919050565b7f50617469656e74206e6f7420666f756e64000000000000000000000000000000600082015250565b6000612893601183611d8a565b915061289e8261285d565b602082019050919050565b600060208201905081810360008301526128c281612886565b9050919050565b600060208201905081810360008301526128e38184611d9b565b905092915050565b6000815190506128fa81611e51565b92915050565b60006020828403121561291657612915611cc1565b5b6000612924848285016128eb565b91505092915050565b61293682611a73565b67ffffffffffffffff81111561294f5761294e611ed1565b5b6129598254612479565b612964828285612671565b600060209050601f8311600181146129975760008415612985578287015190505b61298f85826126e2565b8655506129f7565b601f1984166129a586612552565b60005b828110156129cd578489015182556001820191506020850194506020810190506129a8565b868310156129ea57848901516129e6601f8916826126c4565b8355505b6001600288020188555050505b50505050505056fea2646970667358221220d0f3fae2f8e684044afdab92e840247c738301ff7db974724d48022a1a6a8b4464736f6c63430008100033",
  "immutableReferences": {},
  "source": "/// SPDX-License-Identifier: GPL-3.0\n\npragma solidity >=0.8.0;\n\nimport \"./AdminStorage.sol\"; // Import the Admin contract\n\ncontract PatientStorage {\n    AdminStorage adminContract; // Declare an instance of the AdminStorage contract\n\n    constructor(address _adminContractAddress) {\n        adminContract = AdminStorage(_adminContractAddress); // Initialize the adminContract with the provided address\n    }\n\n    enum VaccineStatus {\n        not_vaccinated,\n        one_dose,\n        two_dose\n    }\n\n    enum Gender {\n        male,\n        female\n    }\n\n    struct Patient {\n        uint256 id;\n        uint256 serial;\n        uint128 age;\n        Gender gender;\n        VaccineStatus vaccineStatus;\n        string district;\n        string symptomsDetails;\n        bool isDead;\n        uint128 createdBy;\n        uint128 updatedBy;\n    }\n\n    Patient[] public patients;\n\n    function createPatientByPatient(uint128 _id, uint256 _serial, uint128 _age, Gender _gender, string memory _district, string memory _symptomsDetails ) public {\n        patients.push(Patient(_id, _serial, _age, _gender, VaccineStatus.not_vaccinated, _district, _symptomsDetails, false, 0, 0));\n    }\n    function createPatientByAdmin(uint128 _id, uint128 _serial, uint128 _age, Gender _gender, string memory _district, string memory _symptomsDetails, string memory AdminUsername ) public {\n        uint128 adminID = adminContract.getAdminByUsername(AdminUsername);\n        patients.push(Patient(_id, _serial, _age, _gender, VaccineStatus.not_vaccinated, _district, _symptomsDetails, false, adminID, adminID ));\n    }\n\n    function getPatient(uint256 serial) public view returns (uint256, uint128, Gender, VaccineStatus, string memory, string memory, bool) {\n        for (uint256 i = 0; i < patients.length; i++) {\n            if (patients[i].serial == serial) {\n                Patient memory patient = patients[i];\n                return (patient.id, patient.age, patient.gender, patient.vaccineStatus, patient.district, patient.symptomsDetails, patient.isDead);\n            }\n        }\n        revert(\"Patient not found\");\n    }\n\n    function deletePatient(uint256 serial) public returns (bool) {\n        for (uint256 i = 0; i < patients.length; i++) {\n            if (patients[i].serial == serial) {\n                if (i != patients.length - 1) {\n                    patients[i] = patients[patients.length - 1];\n                }\n                patients.pop();\n                return true;\n            }\n        }\n        // If the loop finishes without finding the patient, revert with an error message\n        revert(\"Patient not found\");\n    }\n\n\n    function getAllPatients() public view returns (Patient[] memory) {\n        return patients;\n    }\n\n    function updatePatient(uint256 serial, uint128 _age, Gender _gender, string memory _district, string memory _symptomsDetails) public returns(bool) {\n        for (uint256 i = 0; i < patients.length; i++) {\n            if (patients[i].serial == serial) {\n                patients[i].age = _age;\n                patients[i].gender = _gender;\n                patients[i].district = _district;\n                patients[i].symptomsDetails = _symptomsDetails;\n                return true;\n            }\n        }\n        revert(\"Patient not found\");\n    }\n\n\n    function updatePatientByAdmin(\n        uint256 serial, \n        uint128 _age, \n        Gender _gender, \n        VaccineStatus _vaccineStatus, \n        string memory _district, \n        string memory _symptomsDetails, \n        bool _isDead, \n        string memory AdminUsername\n    ) public {\n        for (uint256 i = 0; i < patients.length; i++) {\n            if (patients[i].serial == serial) {\n                uint128 adminId = adminContract.getAdminByUsername(AdminUsername);\n                patients[i].age = _age;\n                patients[i].gender = _gender;\n                patients[i].vaccineStatus = _vaccineStatus;\n                patients[i].district = _district;\n                patients[i].symptomsDetails = _symptomsDetails;\n                patients[i].isDead = _isDead;\n                patients[i].updatedBy = adminId;\n                return;\n            }\n        }\n        // If the loop finishes without finding the patient, revert with an error message\n        revert(\"Patient not found\");\n    }\n\n}\n",
  "sourcePath": "/home/fahim/Desktop/Patient-Management-Project-on-Ethereum/contracts/PatientStorage.sol",
  "compiler": {
    "name": "solc",
    "version": "0.8.16+commit.07a7930e.Emscripten.clang"
  },
  "schemaVersion": "3.4.16",
  "updatedAt": "2024-04-15T20:31:49.147Z",
  "networkType": "ethereum",
  "devdoc": {
    "kind": "dev",
    "methods": {},
    "version": 1
  },
  "userdoc": {
    "kind": "user",
    "methods": {},
    "version": 1
  }
}